:020000040000FA
:040000005DEF00F0C0
:020004000000FA
:040008000DEF00F008
:080018001100000000000000CF
:10002000896A57EC00F08D80000E04641DEC00F02E
:1000300004605AEC05F024EF00F0020E036423EF95
:1000400000F08D9212008D82032AD8B02EEC00F0C1
:10005000D8A054EC05F030EC00F01100042A120096
:10006000020E046039EC00F004645AEC05F08D9047
:1000700012007F0E036041EC00F0036456EC05F0C3
:100080001200036A046A066A070E086E010E096E02
:100090001200926A080E966E946895681200880E97
:1000A000D56ED09EE00EF26E57EC00F01200FE0E00
:1000B000D76ED30ED66EF294120041EC00F049ECEC
:1000C00000F04FEC00F05D0E036481EF00F0710E64
:1000D000036414EF05F0AC0E0364D2EF04F0DE0EFF
:1000E000036489EF04F0F00E036443EF04F0F60EAE
:1000F0000364D6EF03F0FF0E036489EF03F081EF92
:1001000000F06AEC05F0000E046463EF00F0010EED
:1001100004648FEF00F0A9EF00F081EF00F02F0EE4
:1001200003643BEF03F03F0E0364F1EF02F0770E40
:1001300003649EEF02F0A50E036454EF02F0B60EC6
:1001400003640CEF02F0F50E0360CBEF01F081EFDA
:1001500000F02F0E03646DEF01F03B0E036413EF0C
:1001600001F0750E0364B7EF00F081EF00F00000BE
:100170000000010E63EC05F061EC05F061EC05F0A8
:1001800061EC05F061EC05F00000000063EC05F0A7
:1001900063EC05F061EC05F063EC05F063EC05F051
:1001A00063EC05F063EC05F061EC05F00000896E8E
:1001B0000000000000000000896A000061EC05F00A
:1001C00063EC05F063EC05F061EC05F00000896E6E
:1001D0000000000000000000896A000061EC05F0EA
:1001E000000000000000000000000000000000000F
:1001F00061EC05F0000061EC05F061EC05F0000039
:100200000000896E0000000000000000896A000004
:1002100000000000000000000000000000000000DE
:10022000000081EF00F00000070E63EC05F061ECC8
:1002300005F061EC05F061EC05F061EC05F061ECB6
:1002400005F00000000063EC05F063EC05F061ECE4
:1002500005F063EC05F063EC05F063EC05F063EC8E
:1002600005F061EC05F00000896E00000000000060
:100270000000896A000061EC05F063EC05F063ECB6
:1002800005F061EC05F00000896E00000000000040
:100290000000896A000061EC05F0896E0000000032
:1002A0000000000000000000000061EC05F000000C
:1002B00061EC05F061EC05F00000000000000000BA
:1002C000000000000000896A0000000061EC05F0F9
:1002D00000000000000081EF00F000000000030EAD
:1002E00063EC05F061EC05F061EC05F061EC05F004
:1002F00061EC05F061EC05F000000000000000007A
:10030000000063EC05F063EC05F061EC05F063ECD4
:1003100005F063EC05F063EC05F063EC05F061ECCF
:1003200005F00000896E0000000000000000896AEE
:10033000000061EC05F063EC05F063EC05F061ECA6
:1003400005F00000896E0000000000000000896ACE
:10035000000061EC05F0896E000000000000000064
:10036000896A0000000061EC05F0000061EC05F016
:1003700061EC05F000000000896E00000000000044
:100380000000896A0000000061EC05F00000000038
:10039000000081EF00F00000030E63EC05F061EC5B
:1003A00005F061EC05F061EC05F061EC05F061EC45
:1003B00005F00000000000000000000063EC05F004
:1003C00063EC05F061EC05F063EC05F063EC05F01F
:1003D000896E63EC05F063EC05F063EC05F0896A67
:1003E000000061EC05F0896E63EC05F063EC05F04C
:1003F00063EC05F0896A000061EC05F0896E63EC3E
:1004000005F063EC05F063EC05F0896A000061EC2F
:1004100005F0000081EF00F061EC05F00000000045
:1004200000000000000E0864056A05C089FF61EC49
:1004300005F061EC05F061EC05F000000000000043
:10044000000061EC05F0896A63EC05F063EC05F0EF
:1004500063EC05F063EC05F063EC05F063EC05F08C
:1004600063EC05F063EC05F063EC05F063EC05F07C
:1004700063EC05F000000000000063EC05F00000F4
:1004800061EC05F00000000061EC05F063EC05F0A4
:1004900063EC05F061EC05F00000000000000000D6
:1004A0000000000081EF00F00000000061EC05F0AA
:1004B00061EC05F063EC05F0000E0864056A05C008
:1004C00089FF61EC05F0896A00000000000000006F
:1004D000000063EC05F063EC05F063EC05F063EC01
:1004E00005F063EC05F063EC05F063EC05F063ECFC
:1004F00005F063EC05F063EC05F063EC05F000003B
:1005000000000000000000000000000061EC05F0A9
:10051000000063EC05F00000000000000000000097
:100520000000000061EC05F0000061EC05F0000047
:1005300063EC05F063EC05F081EF00F000000000D3
:1005400061EC05F063EC05F0000000000000000025
:1005500061EC05F0000E0864056A05C089FF61ECD6
:1005600005F0896A000063EC05F063EC05F063ECCC
:1005700005F063EC05F063EC05F063EC05F063EC6B
:1005800005F063EC05F063EC05F063EC05F063EC5B
:1005900005F000000000070E0864056A05C089FF29
:1005A00061EC05F0896A63EC05F0000000000000D2
:1005B00000000000070E0864056A05C089FF61ECB1
:1005C00005F0896A0000000061EC05F00000000001
:1005D00000000000000061EC05F063EC05F081EF25
:1005E00000F00000000000000000000063EC05F0D7
:1005F00063EC05F061EC05F0000E0864056A05C0C7
:1006000089FF61EC05F0896A00000000000063ECDE
:1006100005F063EC05F063EC05F063EC05F063ECCA
:1006200005F063EC05F063EC05F063EC05F063ECBA
:1006300005F063EC05F063EC05F0060E0864056A4E
:1006400005C089FF63EC05F061EC05F0000061EC8A
:1006500005F063EC05F0896A000061EC05F063ECDD
:1006600005F00000000061EC05F000000000000053
:10067000000081EF00F000000000000063EC05F0D6
:1006800063EC05F061EC05F0000061EC05F0000E94
:100690000864056A05C089FF61EC05F0896A0000FD
:1006A00000000000000063EC05F063EC05F063EC73
:1006B00005F063EC05F063EC05F063EC05F063EC2A
:1006C00005F063EC05F063EC05F063EC05F063EC1A
:1006D00005F063EC05F0040E0864056A05C089FFA7
:1006E00061EC05F0000000000000896A63EC05F091
:1006F00063EC05F061EC05F0000000000000000074
:1007000061EC05F00000000000000000000081EF37
:1007100000F00000000000000000000000000000E9
:1007200061EC05F061EC05F0000E0864056A05C097
:1007300089FF61EC05F0896A0000000000000000FC
:1007400063EC05F063EC05F063EC05F063EC05F099
:1007500063EC05F063EC05F063EC05F063EC05F089
:1007600063EC05F063EC05F063EC05F063EC05F079
:10077000040E0864056A05C089FF61EC05F00000FD
:1007800000000000896A0000000061EC05F061ECE7
:1007900005F00000000000000000000061EC05F022
:1007A00061EC05F063EC05F081EF00F00000000063
:1007B000000063EC05F000000000000061EC05F0B3
:1007C000000E0864056A05C089FF61EC05F0896ABE
:1007D00063EC05F063EC05F063EC05F063EC05F009
:1007E00063EC05F063EC05F063EC05F063EC05F0F9
:1007F00063EC05F063EC05F0000000000000000071
:10080000040E0864056A060E086029EF04F061EC26
:1008100005F00000000000000000000000000000E3
:10082000000000000000000005C089FF61EC05F039
:10083000000000000000896A63EC05F063EC05F03D
:1008400063EC05F061EC05F000000000000081EFB2
:1008500000F005C089FF61EC05F000000000000019
:1008600000000000000063EC05F063EC05F063ECB1
:1008700005F0896A63EC05F061EC05F061EC05F0C8
:10088000000081EF00F000000000000063EC05F0C4
:10089000000061EC05F0000061EC05F0000E08645A
:1008A000056A05C089FF61EC05F0896A63EC05F013
:1008B00063EC05F063EC05F063EC05F063EC05F028
:1008C00063EC05F063EC05F063EC05F063EC05F018
:1008D00063EC05F063EC05F063EC05F0000000004C
:1008E00000000000040E0864056A05C089FF61EC81
:1008F00005F0000000000000896A61EC05F063EC7F
:1009000005F063EC05F063EC05F00000000081EFFA
:1009100000F000000000000063EC05F063EC05F05F
:10092000000061EC05F0000E0864056A05C089FF4F
:1009300061EC05F0896A000063EC05F063EC05F0FA
:1009400063EC05F063EC05F063EC05F063EC05F097
:1009500063EC05F063EC05F063EC05F063EC05F087
:1009600063EC05F061EC05F0000000000000030EF0
:100970000864056A05C089FF61EC05F061EC05F0CB
:1009800061EC05F0000000000000896A000061ECE5
:1009900005F063EC05F063EC05F061EC05F0000098
:1009A00081EF00F000000000000061EC05F063EC56
:1009B00005F063EC05F061EC05F0000E0864056AD3
:1009C00005C089FF61EC05F0896A63EC05F063EC12
:1009D00005F063EC05F063EC05F063EC05F063EC07
:1009E00005F063EC05F063EC05F063EC05F063ECF7
:1009F00005F063EC05F063EC05F061EC05F0000038
:100A00000000020E0864056A05C089FF00000000AE
:100A1000896A000063EC05F063EC05F063EC05F017
:100A200063EC05F081EF00F0000000000000000022
:100A3000000063EC05F063EC05F063EC05F0010EDB
:100A40000864056A05C089FF0000000061EC05F03C
:100A500063EC05F063EC05F063EC05F063EC05F086
:100A600063EC05F063EC05F063EC05F063EC05F076
:100A700063EC05F063EC05F063EC05F063EC05F066
:100A800063EC05F063EC05F061EC05F0896A63EC5A
:100A900005F063EC05F061EC05F0000000000000DB
:100AA0000000000081EF00F00000120000000000D4
:100AB0000000120000000000000000000000000024
:100AC0001200000012000000000000000000000002
:100AD00000001200070E08B6010E09B0020E056EE6
:0A0AE00000000000000000001200FA
:020000040030CA
:0100010006F8
:010003001EDE
:010005008179
:00000001FF
