:020000040000FA
:0400000067EF00F0B6
:020004000000FA
:040008000DEF00F008
:080018001100000000000000CF
:10002000896A61EC00F08D80000E04641DEC00F024
:10003000046065EC05F024EF00F0020E036423EF8A
:1000400000F08D9212008D82032AD8B02EEC00F0C1
:10005000D8A05FEC05F030EC00F01100042A12008B
:10006000020E046039EC00F0046465EC05F08D903C
:1000700012007F0E036041EC00F0036461EC05F0B8
:100080001200036A046A0000000000000000120071
:10009000036A046A066A00000000120092909292BD
:1000A0009294969096929480958095829584958668
:1000B0001200880ED56ED09EE00EF26E61EC00F05C
:1000C0001200FE0ED76ED30ED66EF294120048ECDC
:1000D00000F04EEC00F059EC00F05D0E03648BEF85
:1000E00000F0710E03641EEF05F0AC0E0364DCEF4C
:1000F00004F0DE0E036493EF04F0F00E03644DEFA2
:1001000004F0F60E0364E0EF03F0FF0E036493EFD8
:1001100003F08BEF00F075EC05F0000E04646DEF5A
:1001200000F0010E046499EF00F0B3EF00F08BEFE4
:1001300000F02F0E036445EF03F03F0E0364FBEF66
:1001400002F0770E0364A8EF02F0A50E03645EEFE1
:1001500002F0B60E036416EF02F0F50E0360D5EF61
:1001600001F08BEF00F02F0E036477EF01F03B0EF0
:1001700003641DEF01F0750E0364C1EF00F08BEF17
:1001800000F000000000010E6EEC05F06CEC05F0D4
:100190006CEC05F06CEC05F06CEC05F00000000078
:1001A0006EEC05F06EEC05F06CEC05F06EEC05F015
:1001B0006EEC05F06EEC05F06EEC05F06CEC05F005
:1001C0000000896E0000000000000000896A000045
:1001D0006CEC05F06EEC05F06EEC05F06CEC05F0E7
:1001E0000000896E0000000000000000896A000025
:1001F0006CEC05F0000000000000000000000000B2
:10020000000000006CEC05F000006CEC05F06CECFC
:1002100005F000000000896E0000000000000000F2
:10022000896A0000000000000000000000000000DB
:100230000000000000008BEF00F00000070E6EECE5
:1002400005F06CEC05F06CEC05F06CEC05F06CEC7A
:1002500005F06CEC05F0000000006EEC05F06EECB3
:1002600005F06CEC05F06EEC05F06EEC05F06EEC54
:1002700005F06EEC05F06CEC05F00000896E0000F6
:10028000000000000000896A00006CEC05F06EECD4
:1002900005F06EEC05F06CEC05F00000896E0000D6
:1002A000000000000000896A00006CEC05F0896E17
:1002B00000000000000000000000000000006CECE6
:1002C00005F000006CEC05F06CEC05F0000000009F
:1002D00000000000000000000000896A000000002B
:1002E0006CEC05F00000000000008BEF00F0000057
:1002F0000000030E6EEC05F06CEC05F06CEC05F004
:100300006CEC05F06CEC05F06CEC05F00000000006
:100310000000000000006EEC05F06EEC05F06CECE7
:1003200005F06EEC05F06EEC05F06EEC05F06EEC91
:1003300005F06CEC05F00000896E00000000000084
:100340000000896A00006CEC05F06EEC05F06EECC4
:1003500005F06CEC05F00000896E00000000000064
:100360000000896A00006CEC05F0896E0000000056
:1003700000000000896A000000006CEC05F000003D
:100380006CEC05F06CEC05F000000000896E0000DC
:10039000000000000000896A000000006CEC05F01D
:1003A0000000000000008BEF00F00000030E6EEC78
:1003B00005F06CEC05F06CEC05F06CEC05F06CEC09
:1003C00005F06CEC05F000000000000000000000EB
:1003D0006EEC05F06EEC05F06CEC05F06EEC05F0E3
:1003E0006EEC05F0896E6EEC05F06EEC05F06EECCF
:1003F00005F0896A00006CEC05F0896E6EEC05F082
:100400006EEC05F06EEC05F0896A00006CEC05F00E
:10041000896E6EEC05F06EEC05F06EEC05F0896A05
:1004200000006CEC05F000008BEF00F06CEC05F0C8
:100430000000000000000000000E8364056A05C093
:1004400089FF6CEC05F06CEC05F06CEC05F000003D
:100450000000000000006CEC05F0896A6EEC05F00D
:100460006EEC05F06EEC05F06EEC05F06EEC05F050
:100470006EEC05F06EEC05F06EEC05F06EEC05F040
:100480006EEC05F06EEC05F00000000000006EEC74
:1004900005F000006CEC05F0000000006CEC05F0CD
:1004A0006EEC05F06EEC05F06CEC05F00000000061
:1004B00000000000000000008BEF00F000000000D2
:1004C0006CEC05F06CEC05F06EEC05F0000E83644E
:1004D000056A05C089FF6CEC05F0896A0000000020
:1004E0000000000000006EEC05F06EEC05F06EEC14
:1004F00005F06EEC05F06EEC05F06EEC05F06EECC0
:1005000005F06EEC05F06EEC05F06EEC05F06EECAF
:1005100005F00000000000000000000000000000E6
:100520006CEC05F000006EEC05F00000000000002F
:1005300000000000000000006CEC05F000006CEC16
:1005400005F000006EEC05F06EEC05F08BEF00F0AE
:10055000000000006CEC05F06EEC05F000000000FF
:10056000000000006CEC05F0000E8364056A05C015
:1005700089FF6CEC05F0896A00006EEC05F06EEC0A
:1005800005F06EEC05F06EEC05F06EEC05F06EEC2F
:1005900005F06EEC05F06EEC05F06EEC05F06EEC1F
:1005A00005F06EEC05F000000000070E8364056A9C
:1005B00005C089FF6CEC05F0896A6EEC05F000005F
:1005C0000000000000000000070E8364056A05C0FB
:1005D00089FF6CEC05F0896A000000006CEC05F006
:1005E000000000000000000000006CEC05F06EEC64
:1005F00005F08BEF00F0000000000000000000009C
:100600006EEC05F06EEC05F06CEC05F0000E83640A
:10061000056A05C089FF6CEC05F0896A00000000DE
:1006200000006EEC05F06EEC05F06EEC05F06EEC83
:1006300005F06EEC05F06EEC05F06EEC05F06EEC7E
:1006400005F06EEC05F06EEC05F06EEC05F0060EB4
:100650008364056A05C089FF6EEC05F06CEC05F05B
:1006600000006CEC05F06EEC05F0896A00006CECA3
:1006700005F06EEC05F0000000006CEC05F00000E9
:100680000000000000008BEF00F000000000000000
:100690006EEC05F06EEC05F06CEC05F000006CEC17
:1006A00005F0000E8364056A05C089FF6CEC05F057
:1006B000896A00000000000000006EEC05F06EEC9E
:1006C00005F06EEC05F06EEC05F06EEC05F06EECEE
:1006D00005F06EEC05F06EEC05F06EEC05F06EECDE
:1006E00005F06EEC05F06EEC05F0040E8364056A0F
:1006F00005C089FF6CEC05F0000000000000896A6D
:100700006EEC05F06EEC05F06CEC05F000000000FE
:10071000000000006CEC05F000000000000000008C
:1007200000008BEF00F0000000000000000000005F
:10073000000000006CEC05F06CEC05F0000E83642A
:10074000056A05C089FF6CEC05F0896A00000000AD
:10075000000000006EEC05F06EEC05F06EEC05F0AC
:100760006EEC05F06EEC05F06EEC05F06EEC05F04D
:100770006EEC05F06EEC05F06EEC05F06EEC05F03D
:100780006EEC05F0040E8364056A05C089FF6CEC0D
:1007900005F0000000000000896A000000006CEC19
:1007A00005F06CEC05F00000000000000000000007
:1007B0006CEC05F06CEC05F06EEC05F08BEF00F0E6
:1007C0000000000000006EEC05F0000000000000DA
:1007D0006CEC05F0000E8364056A05C089FF6CECC3
:1007E00005F0896A6EEC05F06EEC05F06EEC05F034
:1007F0006EEC05F06EEC05F06EEC05F06EEC05F0BD
:100800006EEC05F06EEC05F06EEC05F000000000FB
:1008100000000000040E8364056A060E836033EF57
:1008200004F06CEC05F00000000000000000000087
:1008300000000000000000000000000005C089FF6B
:100840006CEC05F0000000000000896A6EEC05F019
:100850006EEC05F06EEC05F06CEC05F000000000AD
:1008600000008BEF00F005C089FF6CEC05F0000084
:10087000000000000000000000006EEC05F06EECCF
:1008800005F06EEC05F0896A6EEC05F06CEC05F095
:100890006CEC05F000008BEF00F0000000000000A1
:1008A0006EEC05F000006CEC05F000006CEC05F05F
:1008B000000E8364056A05C089FF6CEC05F0896A47
:1008C0006EEC05F06EEC05F06EEC05F06EEC05F0EC
:1008D0006EEC05F06EEC05F06EEC05F06EEC05F0DC
:1008E0006EEC05F06EEC05F06EEC05F06EEC05F0CC
:1008F0000000000000000000040E8364056A05C0CB
:1009000089FF6CEC05F0000000000000896A6CECC7
:1009100005F06EEC05F06EEC05F06EEC05F00000F5
:1009200000008BEF00F00000000000006EEC05F00E
:100930006EEC05F000006CEC05F0000E8364056AB7
:1009400005C089FF6CEC05F0896A00006EEC05F0CB
:100950006EEC05F06EEC05F06EEC05F06EEC05F05B
:100960006EEC05F06EEC05F06EEC05F06EEC05F04B
:100970006EEC05F06EEC05F06CEC05F0000000008C
:100980000000030E8364056A05C089FF6CEC05F066
:100990006CEC05F06CEC05F0000000000000896ACA
:1009A00000006CEC05F06EEC05F06EEC05F06CEC04
:1009B00005F000008BEF00F00000000000006CEC80
:1009C00005F06EEC05F06EEC05F06CEC05F0000E39
:1009D0008364056A05C089FF6CEC05F0896A6EECDA
:1009E00005F06EEC05F06EEC05F06EEC05F06EECCB
:1009F00005F06EEC05F06EEC05F06EEC05F06EECBB
:100A000005F06EEC05F06EEC05F06EEC05F06CECAC
:100A100005F000000000020E8364056A05C089FF2E
:100A200000000000896A00006EEC05F06EEC05F035
:100A30006EEC05F06EEC05F08BEF00F000000000AE
:100A40000000000000006EEC05F06EEC05F06EECAE
:100A500005F0010E8364056A05C089FF00000000EF
:100A60006CEC05F06EEC05F06EEC05F06EEC05F04C
:100A70006EEC05F06EEC05F06EEC05F06EEC05F03A
:100A80006EEC05F06EEC05F06EEC05F06EEC05F02A
:100A90006EEC05F06EEC05F06EEC05F06CEC05F01C
:100AA000896A6EEC05F06EEC05F06CEC05F0000068
:100AB000000000000000000000008BEF00F00000CC
:100AC0001200000000000000120000000000000002
:100AD00000000000000012000000120000000000F2
:100AE00000000000000000001200070E82B0020E9D
:100AF00083B6010E056E0000000000000000120029
:020000040030CA
:0100010006F8
:010003001EDE
:010005008179
:00000001FF
