:020000040000FA
:040000005AEF00F0C3
:020004000000FA
:040008000DEF00F008
:080018001100000000000000CF
:10002000896A54EC00F08D80000E02641DEC00F033
:1000300002601AEC05F024EF00F0020E016423EFD9
:1000400000F08D9212008D82012AD8B02EEC00F0C3
:10005000D8A014EC05F030EC00F01100022A1200D8
:10006000020E026039EC00F002641AEC05F08D908B
:1000700012007F0E016041EC00F0016416EC05F007
:100080001200016A026A056A00001200926A080EF4
:10009000966E946895681200880ED56ED09EE00E1C
:1000A000F26E54EC00F01200FE0ED76ED30ED66E38
:1000B000F294120041EC00F046EC00F04CEC00F041
:1000C0005D0E01647EEF00F0710E0164D5EF04F067
:1000D000AC0E016497EF04F0DE0E016450EF04F003
:1000E000F00E016411EF04F0F60E0164CBEF03F0A3
:1000F000FF0E01647BEF03F07EEF00F0000E026460
:1001000060EF00F0010E02648AEF00F0A4EF00F04F
:100110007EEF00F02F0E016434EF03F03F0E016418
:10012000EFEF02F0770E01649EEF02F0A50E01647E
:1001300053EF02F0B60E01640DEF02F0F50E016010
:10014000CBEF01F07EEF00F02F0E01646CEF01F0B9
:100150003B0E016411EF01F0750E0164B2EF00F087
:100160007EEF00F000000000010E23EC05F021EC12
:1001700005F021EC05F021EC05F021EC05F0000084
:10018000000023EC05F023EC05F021EC05F023EC56
:1001900005F023EC05F023EC05F023EC05F021EC51
:1001A00005F00000896E0000000000000000896A70
:1001B000000021EC05F023EC05F023EC05F021EC28
:1001C00005F00000896E0000000000000000896A50
:1001D000000021EC05F0000000000000000000001D
:1001E00000000000000021EC05F0000021EC05F00B
:1001F00021EC05F000000000896E00000000000006
:100200000000896A000023EC05F0000021EC05F0F5
:1002100000000000000000000000000000007EEF71
:1002200000F00000070E23EC05F021EC05F021ECB6
:1002300005F021EC05F021EC05F021EC05F00000C3
:10024000000023EC05F023EC05F021EC05F023EC95
:1002500005F023EC05F023EC05F023EC05F021EC90
:1002600005F00000896E0000000000000000896AAF
:10027000000021EC05F023EC05F023EC05F021EC67
:1002800005F00000896E0000000000000000896A8F
:10029000000021EC05F0896E000000000000000065
:1002A00000000000000021EC05F0000021EC05F04A
:1002B00021EC05F00000000000000000000000003C
:1002C0000000896A000023EC05F023EC05F0000033
:1002D000000000007EEF00F000000000030E23ECA1
:1002E00005F021EC05F021EC05F021EC05F021EC06
:1002F00005F021EC05F00000000000000000000007
:1003000023EC05F023EC05F021EC05F023EC05F0DF
:1003100023EC05F023EC05F023EC05F021EC05F0CF
:100320000000896E0000000000000000896A0000E3
:1003300021EC05F023EC05F023EC05F021EC05F0B1
:100340000000896E0000000000000000896A0000C3
:1003500021EC05F0896E0000000000000000896AB1
:100360000000000021EC05F0000021EC05F021EC7C
:1003700005F000000000896E000000000000000091
:10038000896A000023EC05F023EC05F00000000072
:1003900000007EEF00F00000030E23EC05F021ECDE
:1003A00005F021EC05F021EC05F021EC05F021EC45
:1003B00005F00000000000000000000023EC05F044
:1003C00023EC05F021EC05F023EC05F023EC05F01F
:1003D000896E23EC05F023EC05F023EC05F0896A27
:1003E000000021EC05F0896E23EC05F023EC05F00C
:1003F00023EC05F0896A000021EC05F0896E23ECFE
:1004000005F023EC05F023EC05F0896A000023ECED
:1004100005F023EC05F07EEF00F0030E23EC05F071
:10042000896E21EC05F021EC05F021EC05F00000CF
:10043000000000000000000021EC05F0896A23ECB8
:1004400005F023EC05F023EC05F023EC05F023EC9C
:1004500005F023EC05F023EC05F023EC05F023EC8C
:1004600005F023EC05F023EC05F00000000000008F
:10047000000023EC05F0000021EC05F00000000076
:1004800021EC05F023EC05F023EC05F023EC05F05E
:1004900021EC05F021EC05F0000000000000000058
:1004A00000007EEF00F000000000000023EC05F0EB
:1004B00023EC05F0030E896E21EC05F0896A00003B
:1004C000000000000000000000000000000021EC1F
:1004D00005F023EC05F023EC05F023EC05F023EC0C
:1004E00005F023EC05F023EC05F023EC05F023ECFC
:1004F00005F023EC05F023EC05F023EC05F00000FB
:1005000000000000000000000000000021EC05F0E9
:10051000000023EC05F000000000000000000000D7
:100520000000000021EC05F021EC05F023EC05F0C3
:1005300023EC05F023EC05F07EEF00F00000000056
:10054000000023EC05F023EC05F0000000000000A3
:100550000000030E896E21EC05F0896A000000009E
:100560000000000021EC05F023EC05F023EC05F081
:1005700023EC05F023EC05F023EC05F023EC05F06B
:1005800023EC05F023EC05F023EC05F023EC05F05B
:1005900023EC05F000000000000000000000000057
:1005A000896E21EC05F0896A23EC05F0000000005B
:1005B0000000000021EC05F0896E21EC05F0896A4D
:1005C0000000000021EC05F000000000000021EC1C
:1005D00005F023EC05F023EC05F07EEF00F00000C1
:1005E0000000000000000000000021EC05F023ECFA
:1005F00005F023EC05F0030E896E21EC05F0896A05
:1006000021EC05F023EC05F023EC05F023EC05F0DC
:1006100023EC05F023EC05F023EC05F023EC05F0CA
:1006200023EC05F023EC05F023EC05F023EC05F0BA
:1006300023EC05F0896E23EC05F021EC05F00000B9
:1006400021EC05F023EC05F0896A000021EC05F0AF
:1006500023EC05F023EC05F00000000021EC05F090
:10066000000000007EEF00F000000000000023EC1E
:1006700005F023EC05F023EC05F000000000030E6C
:10068000896E21EC05F0896A21EC05F0000023EC6D
:1006900005F023EC05F023EC05F023EC05F023EC4A
:1006A00005F023EC05F023EC05F023EC05F023EC3A
:1006B00005F023EC05F023EC05F023EC05F023EC2A
:1006C00005F0896E21EC05F0000000000000896A49
:1006D00023EC05F023EC05F023EC05F021EC05F00C
:1006E00000000000000021EC05F000000000000008
:1006F00000007EEF00F0000000000000000000009D
:10070000000023EC05F021EC05F021EC05F0030ED0
:10071000896E21EC05F0896A21EC05F000000000EB
:1007200000000000000000000000000023EC05F0C5
:1007300023EC05F023EC05F023EC05F023EC05F0A9
:1007400023EC05F023EC05F023EC05F023EC05F099
:1007500023EC05F023EC05F023EC05F0000000008D
:100760000000896E21EC05F0000000000000896A9D
:100770000000000021EC05F021EC05F00000000075
:1007800000000000000021EC05F021EC05F023EC56
:1007900005F07EEF00F000000000000023EC05F003
:1007A00023EC05F021EC05F000000000030E896E3B
:1007B00021EC05F0896A21EC05F023EC05F023EC2F
:1007C00005F023EC05F023EC05F023EC05F023EC19
:1007D00005F023EC05F023EC05F023EC05F023EC09
:1007E00005F023EC05F00000000000000000000010
:1007F000896E21EC05F00000000000000000000000
:10080000000023EC05F023EC05F023EC05F0896AE9
:1008100023EC05F021EC05F021EC05F000007EEF63
:1008200000F000000000000023EC05F023EC05F0D0
:1008300023EC05F00000030E896E21EC05F0896AB7
:1008400023EC05F023EC05F023EC05F023EC05F098
:1008500023EC05F023EC05F023EC05F023EC05F088
:1008600023EC05F023EC05F023EC05F023EC05F078
:1008700023EC05F021EC05F0030E896E21EC05F068
:10088000000000000000896A21EC05F023EC05F06F
:1008900023EC05F023EC05F0000000007EEF00F0F3
:1008A00000000000000023EC05F023EC05F023EC31
:1008B00005F021EC05F0030E896E21EC05F0896A44
:1008C000000023EC05F023EC05F023EC05F023EC0D
:1008D00005F023EC05F023EC05F023EC05F023EC08
:1008E00005F023EC05F023EC05F023EC05F023ECF8
:1008F00005F021EC05F00000000000000000030EF0
:10090000896E21EC05F021EC05F021EC05F00000EA
:1009100000000000896A000021EC05F023EC05F0DE
:1009200023EC05F021EC05F000007EEF00F0000064
:10093000000023EC05F023EC05F023EC05F023EC9C
:1009400005F0030E896E21EC05F0896A000023ECA6
:1009500005F023EC05F023EC05F023EC05F023EC87
:1009600005F023EC05F023EC05F023EC05F023EC77
:1009700005F023EC05F023EC05F023EC05F023EC67
:1009800005F021EC05F000000000030E896E000068
:100990000000896A000023EC05F023EC05F023EC4D
:1009A00005F023EC05F07EEF00F00000000023ECE2
:1009B00005F023EC05F023EC05F023EC05F0000036
:1009C00000000000030E896E0000000021EC05F01D
:1009D00023EC05F023EC05F023EC05F023EC05F007
:1009E00023EC05F023EC05F023EC05F023EC05F0F7
:1009F00023EC05F023EC05F023EC05F023EC05F0E7
:100A000023EC05F023EC05F021EC05F0896A23ECDA
:100A100005F023EC05F023EC05F021EC05F00000D7
:100A2000000000007EEF00F0000012000000000057
:100A300000001200000000000000000000000000A4
:100A40001200000012000000000000000000000082
:100A50000000120083B601C005F082B002C005F0AC
:0A0A6000010E056212C005F012003D
:020000040030CA
:0100010006F8
:010003001EDE
:010005008179
:00000001FF
