:020000040000FA
:0400000059EF00F0C4
:020004000000FA
:040008000DEF00F008
:080018001100000000000000CF
:10002000896A53EC00F08D80000E02641DEC00F034
:10003000026019EC05F024EF00F0020E016423EFDA
:1000400000F08D9212008D82012AD8B02EEC00F0C3
:10005000D8A013EC05F030EC00F01100022A1200D9
:10006000020E026039EC00F0026419EC05F08D908C
:1000700012007F0E016041EC00F0016415EC05F008
:100080001200016A026A00001200926A080E966E5F
:10009000946895681200880ED56ED09EE00EF26EC0
:1000A00053EC00F01200FE0ED76ED30ED66EF29413
:1000B000120041EC00F045EC00F04BEC00F05D0E5E
:1000C00001647DEF00F0710E0164D4EF04F0AC0E1A
:1000D000016496EF04F0DE0E01644FEF04F0F00EC1
:1000E000016410EF04F0F60E0164CAEF03F0FF0E96
:1000F00001647AEF03F07DEF00F0000E02645FEF21
:1001000000F0010E026489EF00F0A3EF00F07DEF34
:1001100000F02F0E016433EF03F03F0E0164EEEFA9
:1001200002F0770E01649DEF02F0A50E016452EF1C
:1001300002F0B60E01640CEF02F0F50E0160CAEF9A
:1001400001F07DEF00F02F0E01646BEF01F03B0E2C
:10015000016410EF01F0750E0164B1EF00F07DEF66
:1001600000F000000000010E22EC05F020EC05F08C
:1001700020EC05F020EC05F020EC05F0000000007C
:1001800022EC05F022EC05F020EC05F022EC05F065
:1001900022EC05F022EC05F022EC05F020EC05F055
:1001A0000000896E0000000000000000896A000065
:1001B00020EC05F022EC05F022EC05F020EC05F037
:1001C0000000896E0000000000000000896A000045
:1001D00020EC05F00000000000000000000000001E
:1001E0000000000020EC05F0000020EC05F020EC01
:1001F00005F000000000896E000000000000000013
:10020000896A000022EC05F0000020EC05F00000F7
:100210000000000000000000000000007DEF00F082
:100220000000070E22EC05F020EC05F020EC05F0B4
:1002300020EC05F020EC05F020EC05F000000000BB
:1002400022EC05F022EC05F020EC05F022EC05F0A4
:1002500022EC05F022EC05F022EC05F020EC05F094
:100260000000896E0000000000000000896A0000A4
:1002700020EC05F022EC05F022EC05F020EC05F076
:100280000000896E0000000000000000896A000084
:1002900020EC05F0896E0000000000000000000066
:1002A0000000000020EC05F0000020EC05F020EC40
:1002B00005F0000000000000000000000000000049
:1002C000896A000022EC05F022EC05F00000000035
:1002D00000007DEF00F000000000030E22EC05F0AE
:1002E00020EC05F020EC05F020EC05F020EC05F00A
:1002F00020EC05F00000000000000000000022ECEF
:1003000005F022EC05F020EC05F022EC05F022ECE3
:1003100005F022EC05F022EC05F020EC05F00000E1
:10032000896E0000000000000000896A000020ECD7
:1003300005F022EC05F022EC05F020EC05F00000C1
:10034000896E0000000000000000896A000020ECB7
:1003500005F0896E0000000000000000896A0000BE
:10036000000020EC05F0000020EC05F020EC05F08A
:1003700000000000896E0000000000000000896A93
:10038000000022EC05F022EC05F000000000000067
:100390007DEF00F00000030E22EC05F020EC05F0EC
:1003A00020EC05F020EC05F020EC05F020EC05F049
:1003B0000000000000000000000022EC05F022EC2C
:1003C00005F020EC05F022EC05F022EC05F0896E3A
:1003D00022EC05F022EC05F022EC05F0896A000021
:1003E00020EC05F0896E22EC05F022EC05F022EC01
:1003F00005F0896A000020EC05F0896E22EC05F01A
:1004000022EC05F022EC05F0896A000022EC05F0F0
:1004100022EC05F07DEF00F0030E22EC05F0896E72
:1004200020EC05F020EC05F020EC05F000000000C9
:1004300000000000000020EC05F0896A22EC05F0C5
:1004400022EC05F022EC05F022EC05F022EC05F0A0
:1004500022EC05F022EC05F022EC05F022EC05F090
:1004600022EC05F022EC05F0000000000000000086
:1004700022EC05F0000020EC05F00000000020EC6C
:1004800005F022EC05F022EC05F022EC05F020EC62
:1004900005F020EC05F00000000000000000000066
:1004A0007DEF00F000000000000022EC05F022ECDF
:1004B00005F0030E896E20EC05F0896A000000004B
:1004C00000000000000000000000000020EC05F02B
:1004D00022EC05F022EC05F022EC05F022EC05F010
:1004E00022EC05F022EC05F022EC05F022EC05F000
:1004F00022EC05F022EC05F022EC05F000000000F3
:100500000000000000000000000020EC05F00000EA
:1005100022EC05F0000000000000000000000000D8
:10052000000020EC05F020EC05F022EC05F022ECB8
:1005300005F022EC05F07DEF00F000000000000067
:1005400022EC05F022EC05F00000000000000000A5
:10055000030E896E20EC05F0896A0000000000009F
:10056000000020EC05F022EC05F022EC05F022EC76
:1005700005F022EC05F022EC05F022EC05F022EC6F
:1005800005F022EC05F022EC05F022EC05F022EC5F
:1005900005F0000000000000000000000000896E6F
:1005A00020EC05F0896A22EC05F000000000000054
:1005B000000020EC05F0896E20EC05F0896A00004F
:1005C000000020EC05F000000000000020EC05F029
:1005D00022EC05F022EC05F07DEF00F000000000B9
:1005E000000000000000000020EC05F022EC05F007
:1005F00022EC05F0030E896E20EC05F0896A20ECF0
:1006000005F022EC05F022EC05F022EC05F022ECDE
:1006100005F022EC05F022EC05F022EC05F022ECCE
:1006200005F022EC05F022EC05F022EC05F022ECBE
:1006300005F0896E22EC05F020EC05F0000020ECBE
:1006400005F022EC05F0896A000020EC05F022ECB0
:1006500005F022EC05F00000000020EC05F00000A1
:1006600000007DEF00F000000000000022EC05F02B
:1006700022EC05F022EC05F000000000030E896E6C
:1006800020EC05F0896A20EC05F0000022EC05F072
:1006900022EC05F022EC05F022EC05F022EC05F04E
:1006A00022EC05F022EC05F022EC05F022EC05F03E
:1006B00022EC05F022EC05F022EC05F022EC05F02E
:1006C000896E20EC05F0000000000000896A22EC31
:1006D00005F022EC05F022EC05F020EC05F000001E
:1006E0000000000020EC05F0000000000000000009
:1006F0007DEF00F00000000000000000000000009E
:1007000022EC05F020EC05F020EC05F0030E896EDC
:1007100020EC05F0896A20EC05F0000000000000E4
:100720000000000000000000000022EC05F022ECB8
:1007300005F022EC05F022EC05F022EC05F022ECAD
:1007400005F022EC05F022EC05F022EC05F022EC9D
:1007500005F022EC05F022EC05F00000000000009E
:10076000896E20EC05F0000000000000896A00009E
:10077000000020EC05F020EC05F000000000000077
:100780000000000020EC05F020EC05F022EC05F064
:100790007DEF00F000000000000022EC05F022ECEC
:1007A00005F020EC05F000000000030E896E20EC3F
:1007B00005F0896A20EC05F022EC05F022EC05F04A
:1007C00022EC05F022EC05F022EC05F022EC05F01D
:1007D00022EC05F022EC05F022EC05F022EC05F00D
:1007E00022EC05F000000000000000000000896E0F
:1007F00020EC05F0000000000000000000000000F8
:1008000022EC05F022EC05F022EC05F0896A22ECDE
:1008100005F020EC05F020EC05F000007DEF00F085
:1008200000000000000022EC05F022EC05F022ECB4
:1008300005F00000030E896E20EC05F0896A22ECB9
:1008400005F022EC05F022EC05F022EC05F022EC9C
:1008500005F022EC05F022EC05F022EC05F022EC8C
:1008600005F022EC05F022EC05F022EC05F022EC7C
:1008700005F020EC05F0030E896E20EC05F0000079
:1008800000000000896A20EC05F022EC05F022EC63
:1008900005F022EC05F0000000007DEF00F0000004
:1008A0000000000022EC05F022EC05F022EC05F03F
:1008B00020EC05F0030E896E20EC05F0896A00003B
:1008C00022EC05F022EC05F022EC05F022EC05F01C
:1008D00022EC05F022EC05F022EC05F022EC05F00C
:1008E00022EC05F022EC05F022EC05F022EC05F0FC
:1008F00020EC05F00000000000000000030E896EEF
:1009000020EC05F020EC05F020EC05F000000000E4
:100910000000896A000020EC05F022EC05F022ECD2
:1009200005F020EC05F000007DEF00F00000000075
:1009300022EC05F022EC05F022EC05F022EC05F0AB
:10094000030E896E20EC05F0896A000022EC05F0A8
:1009500022EC05F022EC05F022EC05F022EC05F08B
:1009600022EC05F022EC05F022EC05F022EC05F07B
:1009700022EC05F022EC05F022EC05F022EC05F06B
:1009800020EC05F000000000030E896E000000005E
:10099000896A000022EC05F022EC05F022EC05F05B
:1009A00022EC05F07DEF00F00000000022EC05F0E5
:1009B00022EC05F022EC05F022EC05F0000000002E
:1009C0000000030E896E0000000020EC05F022EC10
:1009D00005F022EC05F022EC05F022EC05F022EC0B
:1009E00005F022EC05F022EC05F022EC05F022ECFB
:1009F00005F022EC05F022EC05F022EC05F022ECEB
:100A000005F022EC05F020EC05F0896A22EC05F0F7
:100A100022EC05F022EC05F020EC05F000000000CF
:100A200000007DEF00F00000120000000000000058
:100A30001200000000000000000000000000120092
:100A40000000120000000000000000000000000094
:020A5000120092
:020000040030CA
:0100010006F8
:010003001EDE
:010005008179
:00000001FF
