:020000040000FA
:040000005DEF00F0C0
:020004000000FA
:040008000DEF00F008
:080018001100000000000000CF
:10002000896A57EC00F08D80000E04641DEC00F02E
:1000300004601FEC05F024EF00F0020E036423EFD0
:1000400000F08D9212008D82032AD8B02EEC00F0C1
:10005000D8A019EC05F030EC00F01100042A1200D1
:10006000020E046039EC00F004641FEC05F08D9082
:1000700012007F0E036041EC00F003641BEC05F0FE
:100080001200036A046A066A010E016E020E026E15
:100090001200926A080E966E946895681200880E97
:1000A000D56ED09EE00EF26E57EC00F01200FE0E00
:1000B000D76ED30ED66EF294120041EC00F049ECEC
:1000C00000F04FEC00F05D0E036481EF00F0710E64
:1000D0000364E1EF04F0AC0E03649FEF04F0DE0E66
:1000E000036456EF04F0F00E036410EF04F0F60E14
:1000F0000364C8EF03F0FF0E03647BEF03F081EFAE
:1001000000F02FEC05F0000E046463EF00F0010E28
:1001100004648FEF00F0A9EF00F081EF00F02F0EE4
:10012000036430EF03F03F0E0364E9EF02F0770E53
:10013000036499EF02F0A50E03644FEF02F0B60ED0
:1001400003640CEF02F0F50E0360CBEF01F081EFDA
:1001500000F02F0E03646DEF01F03B0E036413EF0C
:1001600001F0750E0364B7EF00F081EF00F00000BE
:100170000000010E28EC05F026EC05F026EC05F059
:1001800026EC05F026EC05F00000000028EC05F058
:1001900028EC05F026EC05F028EC05F028EC05F03D
:1001A00028EC05F028EC05F026EC05F00000896E3F
:1001B0000000000000000000896A000026EC05F045
:1001C00028EC05F028EC05F026EC05F00000896E1F
:1001D0000000000000000000896A000026EC05F025
:1001E000000000000000000000000000000000000F
:1001F00026EC05F0000026EC05F026EC05F00000EA
:100200000000896E0000000000000000896A000004
:1002100000000000000000000000000000000000DE
:10022000000081EF00F00000070E28EC05F026EC3E
:1002300005F026EC05F026EC05F026EC05F026ECA2
:1002400005F00000000028EC05F028EC05F026EC95
:1002500005F028EC05F028EC05F028EC05F028EC7A
:1002600005F026EC05F00000896E0000000000009B
:100270000000896A000026EC05F028EC05F028EC67
:1002800005F026EC05F00000896E0000000000007B
:100290000000896A000026EC05F0896E000000006D
:1002A0000000000000000000000026EC05F0000047
:1002B00026EC05F026EC05F0000000000000000030
:1002C000000000000000896A0000000026EC05F034
:1002D00000000000000081EF00F000000000030EAD
:1002E00028EC05F026EC05F026EC05F026EC05F0F0
:1002F00026EC05F026EC05F00000000000000000F0
:10030000000028EC05F028EC05F026EC05F028ECC0
:1003100005F028EC05F028EC05F028EC05F026ECBB
:1003200005F00000896E0000000000000000896AEE
:10033000000026EC05F028EC05F028EC05F026EC92
:1003400005F00000896E0000000000000000896ACE
:10035000000026EC05F0896E00000000000000009F
:10036000896A0000000026EC05F0000026EC05F08C
:1003700026EC05F000000000896E0000000000007F
:100380000000896A0000000026EC05F00000000073
:10039000000081EF00F00000030E28EC05F026ECD1
:1003A00005F026EC05F026EC05F026EC05F026EC31
:1003B00005F00000000000000000000028EC05F03F
:1003C00028EC05F026EC05F028EC05F028EC05F00B
:1003D000896E28EC05F028EC05F028EC05F0896A18
:1003E000000026EC05F0896E28EC05F028EC05F0FD
:1003F00028EC05F0896A000026EC05F0896E28ECEF
:1004000005F028EC05F028EC05F0896A000026ECE0
:1004100005F0000081EF00F000000000030E28EC62
:1004200005F0896E26EC05F026EC05F026EC05F0CB
:10043000000000000000000026EC05F0896A28ECAE
:1004400005F028EC05F028EC05F028EC05F028EC88
:1004500005F028EC05F028EC05F028EC05F028EC78
:1004600005F028EC05F028EC05F000000000000085
:1004700028EC05F0000026EC05F00000000026EC5A
:1004800005F028EC05F028EC05F026EC05F000005E
:100490000000000000000000000081EF00F00000FC
:1004A000000026EC05F000000000000026EC05F03E
:1004B00028EC05F0030E896E26EC05F0896A000031
:1004C000000000000000000028EC05F028EC05F01A
:1004D00028EC05F028EC05F028EC05F028EC05F0F8
:1004E00028EC05F028EC05F028EC05F028EC05F0E8
:1004F00028EC05F0000000000000000000000000F3
:10050000000026EC05F0000028EC05F000000000DB
:100510000000000000000000000026EC05F00000D4
:1005200026EC05F0000028EC05F028EC05F081EF42
:1005300000F00000000026EC05F028EC05F00000BB
:1005400000000000000000000000000026EC05F0A4
:10055000030E896E26EC05F0896A000028EC05F090
:1005600028EC05F028EC05F028EC05F028EC05F067
:1005700028EC05F028EC05F028EC05F028EC05F057
:1005800028EC05F028EC05F0000000000000000059
:1005900000000000896E26EC05F0896A28EC05F061
:1005A000000000000000000026EC05F0896E26EC3B
:1005B00005F0896A0000000026EC05F0000000004C
:1005C00000000000000026EC05F028EC05F081EFAB
:1005D00000F00000000000000000000028EC05F022
:1005E00028EC05F026EC05F0000000000000030EEA
:1005F000896E26EC05F0896A0000000026EC05F003
:1006000028EC05F028EC05F028EC05F028EC05F0C6
:1006100028EC05F028EC05F028EC05F028EC05F0B6
:1006200028EC05F028EC05F028EC05F0896E28ECA4
:1006300005F026EC05F0000026EC05F028EC05F0AE
:10064000896A000026EC05F028EC05F000000000A7
:1006500026EC05F0000000000000000081EF00F033
:1006600000000000000028EC05F028EC05F026EC66
:1006700005F0000026EC05F0000000000000030E6D
:10068000896E26EC05F0896A00000000000026EC67
:1006900005F028EC05F028EC05F028EC05F028EC36
:1006A00005F028EC05F028EC05F028EC05F028EC26
:1006B00005F028EC05F028EC05F028EC05F028EC16
:1006C00005F0896E26EC05F0000000000000896A44
:1006D00028EC05F028EC05F026EC05F00000000001
:1006E0000000000026EC05F0000000000000000003
:1006F000000081EF00F0000000000000000000009A
:100700000000000026EC05F026EC05F0000E086461
:10071000056A05C089FF26EC05F0896A0000000023
:100720000000000028EC05F028EC05F028EC05F0AE
:1007300028EC05F028EC05F028EC05F028EC05F095
:1007400028EC05F028EC05F028EC05F028EC05F085
:1007500028EC05F0040E0864056A05C089FF26EC44
:1007600005F0000000000000896A0000000026EC8F
:1007700005F026EC05F0000000000000000000007D
:1007800026EC05F026EC05F028EC05F081EF00F0F2
:1007900000000000000028EC05F000000000000050
:1007A00026EC05F0000E0662056A05C089FF26ECFE
:1007B00005F0896A28EC05F028EC05F028EC05F036
:1007C00028EC05F028EC05F028EC05F028EC05F005
:1007D00028EC05F028EC05F028EC05F026EC05F0F7
:1007E000000000000000000E0662056A05C089FFD7
:1007F00026EC05F0000000000000000000000000F2
:1008000028EC05F028EC05F028EC05F0896A28ECC6
:1008100005F026EC05F026EC05F0000081EF00F075
:1008200000000000000028EC05F0000026EC05F0B8
:10083000000026EC05F0000E0662056A05C089FF7F
:1008400026EC05F0896A28EC05F028EC05F028EC88
:1008500005F028EC05F028EC05F028EC05F028EC74
:1008600005F028EC05F028EC05F028EC05F028EC64
:1008700005F028EC05F00000000000000000000E6C
:100880000662056A05C089FF26EC05F0000000003D
:100890000000896A26EC05F028EC05F028EC05F04C
:1008A00028EC05F00000000081EF00F000000000DF
:1008B000000028EC05F028EC05F0000026EC05F01F
:1008C000000E0864056A05C089FF26EC05F0896AF8
:1008D000000028EC05F028EC05F028EC05F028ECE9
:1008E00005F028EC05F028EC05F028EC05F028ECE4
:1008F00005F028EC05F028EC05F028EC05F026ECD6
:1009000005F0000000000000030E0864056A05C041
:1009100089FF26EC05F026EC05F026EC05F000003A
:1009200000000000896A000026EC05F028EC05F0C4
:1009300028EC05F026EC05F0000081EF00F0000047
:100940000000000026EC05F028EC05F028EC05F08E
:1009500026EC05F0000E0864056A05C089FF26EC48
:1009600005F0896A28EC05F028EC05F028EC05F084
:1009700028EC05F028EC05F028EC05F028EC05F053
:1009800028EC05F028EC05F028EC05F028EC05F043
:1009900028EC05F026EC05F000000000020E0864CB
:1009A000056A05C089FF00000000896A000028EC84
:1009B00005F028EC05F028EC05F028EC05F081EFB7
:1009C00000F026EC05F028EC05F028EC05F028EC0A
:1009D00005F0070E056E000005C089FF000000004D
:1009E00026EC05F028EC05F028EC05F028EC05F0E5
:1009F00028EC05F028EC05F028EC05F028EC05F0D3
:100A000028EC05F028EC05F028EC05F028EC05F0C2
:100A100028EC05F028EC05F028EC05F026EC05F0B4
:100A2000896A28EC05F028EC05F028EC05F081EF48
:100A300000F00000120000000000000012000000A2
:100A40000000000000000000000012000000120082
:100A5000000000000000000000000000120083B64B
:100A600001C006F082B002C006F0000E0664070E58
:100A7000056E1200020E8360056A05C089FF120030
:020000040030CA
:0100010006F8
:010003001EDE
:010005008179
:00000001FF
