:020000040000FA
:0400000057EF00F0C6
:020004000000FA
:040008000DEF00F008
:080018001100000000000000CF
:10002000896A51EC00F08D80000E02641DEC00F036
:1000300002609DEC03F024EF00F0020E016423EF58
:1000400000F08D9212008D82012AD8B02EEC00F0C3
:10005000D8A097EC03F030EC00F01100022A120057
:10006000020E026039EC00F002649DEC03F08D900A
:1000700012007F0E016041EC00F0016499EC03F086
:100080001200016A026A036A1200926A080E966EF2
:100090001200880ED56ED09EE00EF26E51EC00F08C
:1000A0001200FE0ED76ED30ED66EF294120041EC03
:1000B00000F045EC00F049EC00F05D0E01647BEFD0
:1000C00000F0710E016458EF03F0AC0E01641AEFFA
:1000D00003F0DE0E0164D3EF02F0F00E016494EF42
:1000E00002F0F60E01644EEF02F0FF0E0164FEEF27
:1000F00001F07BEF00F0000E02645DEF00F0010EF6
:10010000026486EF00F0896A7BEF00F02F0E016435
:10011000BCEF01F03F0E016479EF01F0770E01644E
:100120002DEF01F0A50E0164E2EF00F07BEF00F08F
:10013000BF0E01607BEF00F09EEF00F0030E896EB2
:10014000896AA6EC03F0A6EC03F000000000030EA1
:10015000896E896AA4EC03F00000A6EC03F0A6EC1B
:1001600003F0A6EC03F0A6EC03F0A6EC03F0A6EC7B
:1001700003F0A6EC03F0A6EC03F0A6EC03F0A6EC6B
:1001800003F0A6EC03F0A6EC03F0A6EC03F0A4EC5D
:1001900003F000000000A4EC03F0A6EC03F0A6ECD2
:1001A00003F000000000000000000000A4EC03F0D9
:1001B000A6EC03F0A6EC03F0A6EC03F0A4EC03F02D
:1001C0007BEF00F0030E896E896AA6EC03F0A6ECC3
:1001D00003F00000896EA4EC03F0896A00000000BF
:1001E000000000000000000000000000A4EC03F08C
:1001F000A6EC03F0A6EC03F0A6EC03F0A6EC03F0EB
:10020000A6EC03F0A6EC03F0A6EC03F0A6EC03F0DA
:10021000A6EC03F0A6EC03F0A6EC03F0000000004F
:1002200000000000000000000000A4EC03F000004B
:10023000A6EC03F00000000000000000A4EC03F0B6
:100240000000A4EC03F000000000A6EC03F0A6EC14
:1002500003F0A6EC03F07BEF00F0030E896E896AD1
:10026000A6EC03F0A6EC03F0000000000000000084
:100270000000896EA4EC03F0896A00000000000011
:100280000000A4EC03F0A6EC03F0A6EC03F0A6EC4F
:1002900003F0A6EC03F0A6EC03F0A6EC03F0A6EC4A
:1002A00003F0A6EC03F0A6EC03F0A6EC03F0A6EC3A
:1002B00003F0000000000000000000000000896E54
:1002C000A4EC03F0896AA6EC03F000000000000033
:1002D0000000A4EC03F0896EA4EC03F0896AA4EC9E
:1002E00003F0A6EC03F0A6EC03F0A6EC03F07BEF22
:1002F00000F0030E896E896AA6EC03F0A6EC03F009
:10030000A4EC03F00000000000000000896EA4ECE3
:1003100003F0896AA4EC03F0A6EC03F0A6EC03F06A
:10032000A6EC03F0A6EC03F0A6EC03F0A6EC03F0B9
:10033000A6EC03F0A6EC03F0A6EC03F0A6EC03F0A9
:10034000A6EC03F0A6EC03F0896EA6EC03F0A4EC97
:1003500003F00000A4EC03F0A6EC03F0896A0000AF
:1003600000000000A6EC03F0A6EC03F0A6EC03F0FE
:10037000000000007BEF00F0030E896E896AA6EC96
:1003800003F0A6EC03F0A6EC03F000000000000070
:10039000896EA4EC03F0896AA4EC03F00000A6ECDB
:1003A00003F0A6EC03F0A6EC03F0A6EC03F0A6EC39
:1003B00003F0A6EC03F0A6EC03F0A6EC03F0A6EC29
:1003C00003F0A6EC03F0A6EC03F0A6EC03F0A6EC19
:1003D00003F0896EA4EC03F0000000000000896ABD
:1003E0000000A6EC03F0A6EC03F0A6EC03F0A6ECEC
:1003F00003F0A4EC03F000007BEF00F0000000002D
:10040000030E896E896A0000A6EC03F0A4EC03F0E9
:10041000A4EC03F0030E896EA4EC03F0896AA4EC4B
:1004200003F00000000000000000000000000000D9
:100430000000A6EC03F0A6EC03F0A6EC03F0A6EC9B
:1004400003F0A6EC03F0A6EC03F0A6EC03F0A6EC98
:1004500003F0A6EC03F0A6EC03F0A6EC03F0A6EC88
:1004600003F0000000000000896EA4EC03F000001F
:1004700000000000896A00000000A4EC03F0A4EC76
:1004800003F000000000000000000000A4EC03F0F6
:10049000A4EC03F0A6EC03F07BEF00F0030E896EF2
:1004A000896AA6EC03F0A6EC03F0A4EC03F00000CC
:1004B0000000030E896EA4EC03F0896AA4EC03F03B
:1004C000A6EC03F0A6EC03F0A6EC03F0A6EC03F018
:1004D000A6EC03F0A6EC03F0A6EC03F0A6EC03F008
:1004E000A6EC03F0A6EC03F0A6EC03F0000000007D
:1004F000000000000000896EA4EC03F00000000082
:100500000000000000000000A6EC03F0A6EC03F0E1
:10051000A6EC03F0896AA6EC03F0A4EC03F0A4ECCB
:1005200003F000007BEF00F0030E896E896AA6ECF1
:1005300003F0A6EC03F0A6EC03F00000030E896EB6
:10054000A4EC03F0896AA6EC03F0A6EC03F0A6EC99
:1005500003F0A6EC03F0A6EC03F0A6EC03F0A6EC87
:1005600003F0A6EC03F0A6EC03F0A6EC03F0A6EC77
:1005700003F0A6EC03F0A6EC03F0A4EC03F0030EEA
:10058000896EA4EC03F0000000000000896AA4EC6E
:1005900003F0A6EC03F0A6EC03F0A6EC03F00000D9
:1005A00000007BEF00F0030E896E896AA6EC03F071
:1005B000A6EC03F0A6EC03F0A4EC03F0030E896EA6
:1005C000A4EC03F0896A0000A6EC03F0A6EC03F0AB
:1005D000A6EC03F0A6EC03F0A6EC03F0A6EC03F007
:1005E000A6EC03F0A6EC03F0A6EC03F0A6EC03F0F7
:1005F000A6EC03F0A6EC03F0A4EC03F0000000006E
:1006000000000000030E896EA4EC03F0A4EC03F0DC
:10061000A4EC03F0000000000000896A0000A4ECD4
:1006200003F0A6EC03F0A6EC03F0A4EC03F000004A
:100630007BEF00F000000000A6EC03F0A6EC03F056
:10064000A6EC03F0A6EC03F0030E896EA4EC03F015
:10065000896A0000A6EC03F0A6EC03F0A6EC03F018
:10066000A6EC03F0A6EC03F0A6EC03F0A6EC03F076
:10067000A6EC03F0A6EC03F0A6EC03F0A6EC03F066
:10068000A6EC03F0A6EC03F0A4EC03F000000000DD
:10069000030E896E00000000896A0000A6EC03F0DA
:1006A000A6EC03F0A6EC03F0A6EC03F07BEF00F061
:1006B00000000000A6EC03F0A6EC03F0A6EC03F0AB
:1006C000A6EC03F0000000000000030E896E00009D
:1006D0000000A4EC03F0A6EC03F0A6EC03F0A6ECFB
:1006E00003F0A6EC03F0A6EC03F0A6EC03F0A6ECF6
:1006F00003F0A6EC03F0A6EC03F0A6EC03F0A6ECE6
:1007000003F0A6EC03F0A6EC03F0A6EC03F0A4ECD7
:1007100003F0896AA6EC03F0A6EC03F0A6EC03F064
:10072000A4EC03F00000000000007BEF00F00000EC
:100730001200000000000000120000000000000095
:100740000000000000001200000012000000000085
:0A075000000000000000000012008D
:020000040030CA
:0100010006F8
:010003001EDE
:010005008179
:00000001FF
